:020000040800F2
:10000000FF4F0020F90F00084110000841100008C0
:1000100041100008411000084110000800000000D5
:100020000000000000000000000000000136000891
:10003000411000080000000011370008593700087F
:10004000411000084110000841100008411000084C
:10005000411000084110000841100008411000083C
:10006000411000084110000841100008411000082C
:10007000411000084110000841100008411000081C
:100080004110000841100008DD130008411000086D
:1000900041100008411000084110000841100008FC
:1000A00041100008411000084110000841100008EC
:1000B00041100008411000084110000841100008DC
:1000C00041100008411000084110000841100008CC
:1000D00041100008411000084110000841100008BC
:1000E0004110000841100008411000080000000005
:1000F0000000000000000000000000000000000000
:0C01000000000000000000005FF808F1A3
:1001100070B50F4B0F4DAB42A3EB050607D0002483
:10012000B61055F8043B01349847A642F9D801F0BF
:1001300065F8094D094B5E1BAB424FEAA60606D097
:10014000002455F8043B01349847A642F9D870BD05
:10015000843800088438000884380008843800088F
:1001600070B5860747D0541E002A3ED00346CAB257
:1001700001E0013C39D303F8012B9D07F9D1032C91
:100180002CD9CDB205EB05250F2C1A4605EB0545FC
:1001900034D9A4F1100C2CF00F0603F1100EB64464
:1001A0004FEA1C1CC2E90055C2E9025510327245E3
:1001B000F8D10CF1010214F00C0F03EB021204F061
:1001C0000F0C13D0ACF1040323F0030304331344E6
:1001D00042F8045B9342FBD10CF003042CB1C9B28A
:1001E0001C4403F8011BA342FBD170BD64461346B7
:1001F000002CF4D1F9E703461446C0E7A446E1E732
:10020000844641EA000313F0030349D1403A23D363
:100210000B6803604B6843608B688360CB68C36086
:100220000B6903614B6943618B698361CB69C3616E
:100230000B6A03624B6A43628B6A8362CB6AC36256
:100240000B6B03634B6B43638B6B8363CB6BC3633E
:1002500040304031403ADBD230320BD30B68036080
:100260004B6843608B688360CB68C360103010318B
:10027000103AF3D20C3205D351F8043B40F8043B5A
:10028000043AF9D2043208D0D2071CBF11F8013B5E
:1002900000F8013B01D30B8803806046704700BF24
:1002A000082A13D38B07B1D010F00303AED0C3F1EB
:1002B0000403D21ADB071CBF11F8013B00F8013B15
:1002C000A4D331F8023B20F8023B9FE7043AD9D38C
:1002D000013A11F8013B00F8013BF9D20B780370A9
:1002E0004B7843708B7883706046704708B410B5C4
:1002F000002A04469DB034DB4FF4027C4FF000032B
:10030000ADF814C01B934FF6FF7C0291069120AB11
:1003100015D0013A0492079202A91F9A0193ADF8F1
:1003200016C000F051F9421C01DA8B232360002231
:10033000029B1A701DB0BDE8104001B070470492D6
:10034000079202A91F9A0193ADF816C000F03CF97C
:10035000431C01DA8B2323601DB0BDE8104001B0BF
:1003600070478B234FF0FF302360F5E70CB410B5D6
:10037000204B00291C689CB036DB4FF000034FF483
:1003800002721B934FF6FF7C02900690ADF814208A
:100390001FAB16D001391E9A04910791204602A97D
:1003A0000193ADF816C000F00FF9421C01DA8B235F
:1003B00023600022029B1A701CB0BDE8104002B0FE
:1003C00070470491079120461E9A02A90193ADF847
:1003D00016C000F0F9F8431C01DA8B2323601CB02F
:1003E000BDE8104002B070478B234FF0FF30236010
:1003F000F5E700BF000000202DE9F0471D468F689B
:100400000C46AF4216460B6836D8B1F90CC01CF446
:10041000906F0ED13D46184631462A4600F0F0FA5C
:100420000020A368DF1B2368A7602B442360BDE87E
:10043000F0874A69096902EB42025F1A02EBD27245
:100440006B1C52103B44934292BF914699461A4608
:100450001CF4806F804611D0114600F0F3F98246FB
:1004600000B33A462169FFF7CBFEA38923F49063DA
:1004700043F08003A38105E02F46CCE700F03EFB6C
:10048000824658B10AEB0703A9EB0707A760C4F837
:1004900010A02F46C4F814902360BCE740462169A1
:1004A00000F050FA0C22A3894FF0FF3043F04003D4
:1004B000C8F80020A381BAE72DE9F04F936883B014
:1004C000924617680190002B76D04FF0000B0C4637
:1004D0005D468B680A6848E0B4F90CC01CF4906F64
:1004E0002FD0D4E90403A2EB000803EB430202EB94
:1004F000D27208F1010152102944914292BF9146F3
:1005000089460A461CF4806F39D01146019800F0E4
:1005100099F9064600283DD042462169FFF770FE52
:10052000A28922F4906242F08002A28106EB0800C8
:10053000A9EB08022661A8462E46A2602060C4F8F6
:1005400014903246594600F05BFADAF80810A368B6
:100550002268A3EB08033244491BA3602260CAF857
:10056000081049B3D7E900B5083798461046002D62
:10057000F8D09D421E46AFD2A8462E46E1E701467E
:10058000019800F0BBFA06460028CFD101982169F6
:1005900000F0D8F90C21A389019D43F040032960A4
:1005A0000022A3814FF0FF300023CAF80820CAF8C8
:1005B000043003B0BDE8F08F00200023CAF80430F7
:1005C00003B0BDE8F08F00BF2DE9F04F1C468B89CA
:1005D00089461D06824693469DB003D50B69002BC4
:1005E00000F0EE80002343F2200209939BF80030D4
:1005F00001277C4E0394ADF82920002B71D05D4675
:1006000003E015F8013F002B73D0252BF9D1B5EB92
:100610000B0471D12A78002A63D000234FF0FF32F7
:100620000135CDE90523049307938DF853301A93D0
:1006300006E02546049B801B07FA00F00343049361
:100640002C46052214F8011B304600F061FCA3463D
:100650000028EED1049BD90644BF20228DF85320F8
:100660001A0748BF2B22297848BF8DF853202A2922
:100670004FD1039A11680432002903927BDB079162
:1006800069782E295BD0584C0322204600F040FCAC
:1006900038B14022049B001B824013430BF1010B35
:1006A00004931BF8011B062250488DF8281000F017
:1006B0002FFC002865D04E4B002B55D003A900918C
:1006C0004A4650464B4B04A9AFF300808046B8F130
:1006D000FF3F06D0099B434409939BF80030002B51
:1006E0008DD1B9F80C305B0679D409981DB0BDE8FE
:1006F000F08FB5EB0B04F4D023465A4649465046DA
:10070000FFF77AFE0130ECD0099B2A782344099345
:1007100081E7A1F13002092A88BFAB46B1D8079B17
:1007200000E00134217803EB830302EB4303A1F1E2
:100730003002092AF5D92E29A3460793A3D19BF8A5
:1007400001102A2927D1039B0BF102001A680433F8
:10075000002A0393B8BF4FF0FF339BF802100592B5
:100760008346B8BF05938EE7039B073323F0070347
:1007700008330393AEE7494243F002030791049321
:100780007EE703A900914A4650461A4B04A900F09F
:1007900079FA80469BE70023A1F13002092A0BF188
:1007A000010B05933FF66FAF1BF8011F03EB8303AB
:1007B00002EB4303A1F13002092AF5D9059362E760
:1007C000402100F03FF8C9F80000C9F8100018B146
:1007D0004023C9F8143005E70C23CAF800304FF065
:1007E000FF3083E740380008483800084C380008DC
:1007F00000000000F903000870B5114E054633688B
:100800000C46BBB12146284600F0CEFB431C0146F6
:100810000CD0C41C24F00304A04205D02846611A61
:1008200000F0C2FB013001D0204670BD4FF0FF3414
:10083000204670BD194600F0B7FB3060E2E700BF0C
:10084000580000202DE9F843CD1C25F0030508359C
:100850000C2D38BF0C25002D064618DBA94216D8F2
:10086000DFF8DC8000F050FBD8F80420A2B1144679
:1008700003E0636822467BB11C4623685B1BF8D407
:100880000B2B1FD89442636854D053600CE00C23A8
:1008900033600020BDE8F88329463046FFF7ACFFFF
:1008A000431C044619D00560304600F02FFB04F1CC
:1008B0000B00231D20F00700C21A1CBF1B1AA350F7
:1008C000BDE8F88361199442256014BF5160C8F8EF
:1008D0000410635163684B60E6E7D8F804701FB3F7
:1008E0003C467F68002FFBD123683946304604EB35
:1008F000030900F059FB814516D123683046ED1AF3
:100900002946FFF779FF01300ED02368D8F804207C
:100910002B442360536883B1A34203D01A465B681B
:100920009C42FBD10023B0E70C233046336000F03B
:10093000EDFAAEE7C8F80430B6E7C8F80470B3E7DC
:1009400058000020002950D038B551F8043C0C1F45
:10095000002BB8BFE418054600F0D6FA274A136802
:100960002BB1A3420CD92168601883422CD02846B1
:1009700063601460BDE8384000F0C8BAA3420FD8E5
:100980001A465B68002BF9D111685018844217D0C1
:100990002CD3636054602846BDE8384000F0B6BAF6
:1009A00011685018A04214D020D8216860188342E2
:1009B000EFD118685B680844C4E900035460EAE7B3
:1009C00023680B441360E6E718685B6808442060FE
:1009D000CDE720680144501883421160DBD1D3E990
:1009E00000040144C2E90014D5E770470C232846EF
:1009F0002B60BDE8384000F089BA00BF5C000020E1
:100A000088420ED98B1883420BD900EB020C002AC6
:100A10006DD0624613F801CD994202F801CDF9D1AB
:100A200070470F2A0FD8034602F1FF3C002A5ED020
:100A30000CF1010C013B8C4411F8012B614503F8CA
:100A4000012FF9D1704740EA01039B0750D1A2F171
:100A5000100370B501F1200C23F00F0501F1100E09
:100A600000F11004AC441B095EF8105C0EF1100E8E
:100A700044F8105C5EF81C5C103444F81C5C5EF8B2
:100A8000185C44F8185C5EF8145CE64544F8145CA5
:100A9000EAD1013312F00C0F01EB031102F00F0445
:100AA00000EB031328D08E46043C24F003064FEAE3
:100AB000940C1E441C1F5EF8045B44F8045FB442AF
:100AC000F9D10CF1010402F0030203EB840301EB02
:100AD000840102F1FF3C4AB10CF1010C013B8C4452
:100AE00011F8012B614503F8012FF9D170BD704752
:100AF000034602F1FF3C9BE72246EAE72DE9F0417D
:100B0000144641B30AB306460D4600F05FFA84422C
:100B1000074602D8B4EB500F13D821463046FFF7F2
:100B200091FE804650B1BC422246294628BF3A4633
:100B3000FFF766FB29463046FFF704FF4046BDE855
:100B4000F081A8464046BDE8F081A046FFF7FAFED6
:100B50004046BDE8F0811146BDE8F041FFF772BEA6
:100B60002DE9F84F92461F460A698B680C469A4257
:100B7000B8BF1A46CAF8002091F843300646DDF89F
:100B8000289013B10132CAF80020226891065FD57F
:100B9000DAF800300233CAF80030226812F0060F8B
:100BA00011461DD1E1689942D8BF114618DD4FF0BA
:100BB000000804F1190B05E0E568DAF80030ED1AD9
:100BC00045450CDD01235A4639463046C8470130B9
:100BD00008F10108F0D14FF0FF30BDE8F88F21682F
:100BE00094F84330003B18BF01238A060AD5302110
:100BF000E21882F8431094F845105A1C224402333C
:100C000082F843103946304604F14302C8470130A8
:100C1000E1D0D4E902202368DAF8005003F006039B
:100C2000042B21691BD08A4220DD4FF00008521AA4
:100C3000904400251A3401E0454517DA0123224685
:100C400039463046C847013005F10105F4D1C2E705
:100C500012F0060F0DD0003B18BF0123D2E7401B56
:100C60008A4220EAE078E2DC0028E2DC0020BDE8ED
:100C7000F88FE168DAF800309942D8BF114696DC67
:100C8000AEE700BF2DE9F04717460A7E84B00C4658
:100C9000064698460C9D01F1430C002A35D0A2F17E
:100CA0005803D9B2202969D8202B67D8DFE813F080
:100CB000E600660066006600660066006600660084
:100CC000660066006600AC007000660066006600A4
:100CD0006600700066006600660066002100830002
:100CE000C60066006600B600660083006600660007
:100CF000EC002B682268181D6169286010061B68CB
:100D000002D4520600F1E08019600023E14623611D
:100D10003B4621463046CDF8008003AAFFF720FF6E
:100D2000013020D04A46394630462369C047013059
:100D300019D02368E0689B07DDF80C9018D548456A
:100D400016DD002504F1190A04E0E068A0EB0903B0
:100D5000AB420DDD0123524639463046C0470130D3
:100D600005F10105F1D14FF0FF3004B0BDE8F08787
:100D70004845B8BF484604B0BDE8F087012084F874
:100D8000422004F142090023206184F84330BFE788
:100D90002A682368111D1806296002D4590600F13B
:100DA00095801068014600286268C0F293804FF079
:100DB0000A0E534815E020682B6810F0800F53F896
:100DC000041B02D1400648BF89B26F2A14BF4FF0FE
:100DD0000A0E4FF0080E4A482B600023626884F820
:100DE0004330002AA26051DB236823F00403236010
:100DF00000294BD1002A7BD1E146BEF1080F56D025
:100E0000ACEB0903236183E72A68012011680432EF
:100E10002A6004F1420984F84210B4E72B680021EB
:100E20001A1D2A60D3F800906268484600F070F8F6
:100E3000002863D0A0EB09006060A4E7236843F0BA
:100E40002003236078222F4884F845202A6813F075
:100E5000800F52F8041B03D113F0400F18BF89B262
:100E60002A60DA0744BF43F02003236019B92368DE
:100E700023F0200323604FF0100EAEE758232048E4
:100E800084F845302368E1E72368DBE77546E146EF
:100E9000B1FBF5F30A4605FB131A194610F80A30A0
:100EA000AA4209F8013DF3D2BEF1080FA8D1236888
:100EB000DD07A5D5626823699A42A1DC302309F1D8
:100EC000FF3989F800309BE719801EE7B2F900105E
:100ED000084668E72D20002AA26084F8430002DB60
:100EE00023F0040323600A250548AE464942CEE7B5
:100EF000037804F1420984F842307EE7606842E7F3
:100F00005438000868380008704700BF704700BFB9
:100F10005FFA81FC810744D00346511E22B909E0E3
:100F20009A0709D0013905D3184602780133624582
:100F3000F6D1704700207047184603290CD80029C5
:100F4000F8D00346014401E08B42F3D0184613F871
:100F5000012B6245F8D1704710B50CEB0C2402460A
:100F600004EB044402E00439032915D9104652F871
:100F7000043B6340A3F1013E2EEA030313F0803FDC
:100F8000F1D00346014401E08B4208D0184613F823
:100F9000012B6245F8D110BD10460029F1D1002087
:100FA00010BD1146C9E700BF002238B5064D044602
:100FB00008462A6000F012F8431C00D038BD2B68A8
:100FC000002BFBD0236038BD6000002051F8043CAA
:100FD000181F002BBCBF0B58C0187047044A0549A6
:100FE0001368002B08BF0B46184410601846704762
:100FF00064000020C829002000F024F80B480C49A8
:101000000C4A002302E0D458C4500433C4188C4264
:10101000F9D3094A094C002301E013600432A242CB
:10102000FBD3FFF775F800F035F97047000000209A
:10103000580000208438000858000020C4290020EF
:10104000FEE7000080B400AF2F4B1B682E4A43F42C
:101050008033136000BF2C4B1B6803F40033002B5C
:10106000F9D02A4B1B68294A43F010031360274B21
:101070001B68264A23F007031360244B1B68234A8E
:1010800043F004031360204B1F4A5B6853601E4B00
:101090005B681D4A43F4806353601B4B1A4A5B68CC
:1010A0005360194B5B68184A23F47C135360164B4A
:1010B0005B68154A43F4E8135360134B1B68124AEC
:1010C00043F08073136000BF0F4B1B6803F0007385
:1010D000002BF9D00C4B5B680B4A23F003035360E1
:1010E000094B5B68084A43F00203536000BF064B9C
:1010F0005B6803F00C03082BF9D1054B054A1A6015
:1011000000BFBD4680BC7047001002400020024076
:101110005000002000A24A0480B485B000AF002334
:10112000FB600023BB6000237B602F4B5B6803F0F8
:101130000C03FB60FB68082B11D0FB68082B3AD826
:10114000FB68002B03D0FB68042B04D033E0274B53
:10115000274A1A6033E0254B254A1A602FE0224BBC
:101160005B6803F47013BB601F4B5B6803F4803350
:101170007B60BB689B0C0233BB607B68002B06D195
:10118000BB681C4A02FB03F3184A136017E0164BB6
:101190005B6803F40033002B06D0BB68154A02FBE2
:1011A00003F3124A13600AE0BB68114A02FB03F31F
:1011B0000E4A136003E00D4B0D4A1A6000BF0A4B44
:1011C0005B681B0903F00F030B4AD35CFB60074B02
:1011D0001A68FB6822FA03F3044A136000BF14374D
:1011E000BD4680BC704700BF001002405000002088
:1011F00000127A0000093D002C38000880B400AFCE
:1012000000BFBD4680BC704780B483B000AF0346CA
:10121000FB7197F90730002B0BDBFB7903F01F0202
:10122000064997F907305B09012000FA02F241F8FC
:10123000232000BF0C37BD4680BC704700E100E0B2
:1012400080B483B000AF03463960FB7197F9073073
:10125000002B0ADB3B68DAB20C4997F90730120120
:10126000D2B20B4483F800230AE03B68DAB20849A3
:10127000FB7903F00F03043B1201D2B20B441A7640
:1012800000BF0C37BD4680BC704700BF00E100E0E6
:1012900000ED00E080B582B002AF00F0CDF803228F
:1012A0000021012000F080FA0346164A1360002254
:1012B0000221052000F078FA0346134A1360114B0F
:1012C0001B68002B1CD0104B1B68002B18D00F4B39
:1012D00001930223009300234FF480720C490D48C0
:1012E00000F078FE0C4B01930223009300234FF48F
:1012F00080720A490A4800F06DFE01F023F800BF31
:1013000000BFFDE7680000206C0000207000002096
:10131000E03700082513000874000020F4370008A7
:101320009113000880B586B000AF786001F044F9F1
:1013300003463B6164237B6107F11003796918461A
:1013400000F064FF0E4B9B680D4A43F480039360EA
:101350000C4B1B683221184600F02CFC0346012B75
:10136000EAD1094B1B889BB2FB81084B186807F137
:101370000E0100234FF0FF3200F074FADCE700BFEB
:101380000024014068000020780000206C0000204C
:1013900080B594B000AF78600023A7F84E300D4BB5
:1013A0001B6807F14E014FF0FF32184600F060FB5A
:1013B0000346012BF3D1B7F84E3007F10C00064A73
:1013C0004021FEF7D3FF07F10C03184600F0C8F8E0
:1013D000E5E700BF6C0000200838000880B582B047
:1013E00000AF00237B60104B1B6803F00203002B4F
:1013F00016D00D4BDB6C9AB20C4B1A800C4B1B6851
:101400003A1D1146184600F0D7FA7B68002B07D02A
:10141000084B4FF080521A60BFF34F8FBFF36F8FAE
:1014200000BF0837BD4680BD002401407800002081
:101430006800002004ED00E080B582B000AFFFF747
:101440006BFE2D4B9B692C4A43F4844343F0050308
:101450009361294B5B68284A23F440435360264B31
:101460005B68254A43F400435360244B1B68234ABE
:1014700023F00F03136000F045F8214B5B68204A0E
:1014800043F0200353601E4B00225A631C4B9B68A1
:101490001B4A43F00103936000237B6002E07B68FA
:1014A00001337B607B68B3F57A7FF8DB144B9B6874
:1014B000134A43F00803936000BF114B9B6803F08D
:1014C0000803002BF9D10E4B9B680D4A43F004032F
:1014D000936000BF0A4B9B6803F00403002BF9D113
:1014E00050211220FFF7ACFE1220FFF78DFE00BF47
:1014F0000837BD4680BD00BF001002400008014013
:101500000024014080B400AF134B5B68124A23F003
:10151000F0035360104B5B680F4A43F09003536035
:101520000D4B5B680C4A23F4706353600A4B5B6895
:10153000094A43F480635360084B41F64C529A6069
:10154000064BDB68054A43F4005343F00C03D360B9
:1015500000BFBD4680BC7047000801400038014014
:1015600080B483B000AF78600CE000BF0A4B1B680A
:1015700003F08003002BF9D07B685A1C7A601A783C
:10158000054B5A607B681B78002BEED100BF00BF73
:101590000C37BD4680BC70470038014080B400AFB6
:1015A00000BFBD4680BC704780B483B000AF786098
:1015B0007B6803F108027B685A607B684FF0FF325A
:1015C0009A607B6803F108027B68DA607B6803F14C
:1015D00008027B681A617B6800221A6000BF0C3722
:1015E000BD4680BC704780B483B000AF78607B6834
:1015F00000221A6100BF0C37BD4680BC704780B422
:1016000085B000AF786039603B681B68BB60BB6821
:10161000B3F1FF3F03D17B681B69FB600CE07B6883
:101620000833FB6002E0FB685B68FB60FB685B689B
:101630001B68BA689A42F6D2FB685A683B685A60DF
:101640003B685B683A689A603B68FA689A60FB6836
:101650003A685A603B687A681A617B681B685A1C52
:101660007B681A6000BF1437BD4680BC704780B4E9
:1016700085B000AF78607B681B69FB607B685B6846
:101680007A6892689A607B689B687A6852685A6048
:10169000FB685B687A689A4203D17B689A68FB684A
:1016A0005A607B6800221A61FB681B685A1EFB683F
:1016B0001A60FB681B6818461437BD4680BC70472B
:1016C00080B584B000AF786039600123FB607B682F
:1016D000BB60BB68002B5DD0BB68DB6B002B59D0B7
:1016E000BB681A6CBB68DB6B0021A3FB0223002BD9
:1016F00000D001210B46002B4CD101F0D5FFBB6877
:101700001A68BB68DB6BB968096C01FB03F31A4408
:10171000BB689A60BB6800229A63BB681A68BB68A2
:101720005A60BB681A68BB68DB6B013BB968096C1F
:1017300001FB03F31A44BB68DA60BB68FF2283F83D
:101740004420BB68FF2283F845203B68002B14D15E
:10175000BB681B69002B1AD0BB681033184601F018
:10176000DFF80346002B12D00E4B4FF080521A6068
:10177000BFF34F8FBFF36F8F09E0BB68103318467C
:10178000FFF712FFBB6824331846FFF70DFF01F087
:10179000A5FF01E00023FB60FB6818461037BD463B
:1017A00080BD00BF04ED00E080B58AB002AFF860F4
:1017B000B9601346FB710023FB61FB68002B2DD041
:1017C0000021BA68FB68A3FB0223002B00D0012193
:1017D0000B46002B22D1FB68BA6802FB03F313F11E
:1017E000490F1BD8FB68BA6802FB03F3BB61BB69F6
:1017F0004833184601F024FDF861FB69002B0DD039
:10180000FB697B617B6948337B61FA79FB690093F3
:1018100013467A69B968F86800F005F8FB6918465C
:101820002037BD4680BD80B584B000AFF860B96098
:101830007A60FB70BB68002B03D1BB69BA691A6080
:1018400002E0BB697A681A60BB69FA68DA63BB694F
:10185000BA681A640121B869FFF732FF00BF103778
:10186000BD4680BD80B58AB000AFF860B9607A60CF
:101870003B6000237B62FB683B6201F015FF3B6A23
:101880009A6B3B6ADB6B9A4202D33B68022B29D1ED
:101890003A68B968386A00F02BFAF8613B6A5B6A0B
:1018A000002B10D03B6A2433184601F039F8034668
:1018B000002B13D03F4B4FF080521A60BFF34F8F75
:1018C000BFF36F8F0AE0FB69002B07D0394B4FF055
:1018D00080521A60BFF34F8FBFF36F8F01F0FEFE8F
:1018E000012363E07B68002B03D101F0F7FE0023A6
:1018F0005CE07B6A002B06D107F11403184601F067
:10190000D9F801237B6201F0E9FE00F04FFD01F000
:10191000CBFE3B6A93F844305BB2B3F1FF3F03D197
:101920003B6A002283F844203B6A93F845305BB25F
:10193000B3F1FF3F03D13B6A002283F8452001F059
:10194000CDFE3A1D07F114031146184601F0C8F800
:101950000346002B24D1386A00F0B4FA0346002B6A
:1019600018D03B6A10337A681146184600F08AFF97
:10197000386A00F03FFA00F027FD0346002B7FF4A1
:101980007CAF0C4B4FF080521A60BFF34F8FBFF308
:101990006F8F72E7386A00F02DFA00F015FD6CE7E2
:1019A000386A00F027FA00F00FFD002318462837A8
:1019B000BD4680BD04ED00E080B58CB000AF78601E
:1019C00039607B68BB62EFF311824FF0500383F301
:1019D0001188BFF36F8FBFF34F8F7A613B617B69D3
:1019E0007B62BB6A9B6B3B62BB6ADB6B3A6A9A4267
:1019F00031D2BB6A93F84530FB773B6A5A1CBB6A0D
:101A00009A6397F91F30B3F1FF3F12D1BB6A5B6A4B
:101A1000002B1DD0BB6A2433184600F081FF03461B
:101A2000002B15D03B68002B12D03B6801221A60B6
:101A30000EE000F0CFFDB86197F91F30BA699A4205
:101A400006D9FB7F0133DBB25AB2BB6A83F845206B
:101A50000123FB6201E00023FB627B6AFB60FB6801
:101A600083F3118800BFFB6A18463037BD4680BD3E
:101A700080B58AB000AFF860B9607A6000237B62FD
:101A8000FB683B6201F010FE3B6A9B6BFB61FB69EC
:101A9000002B1FD0B968386A00F086F9FB695A1E1E
:101AA0003B6A9A633B6A1B69002B0FD03B6A103379
:101AB000184600F035FF0346002B07D03C4B4FF093
:101AC00080521A60BFF34F8FBFF36F8F01F006FE95
:101AD000012369E07B68002B03D101F0FFFD0023A7
:101AE00062E07B6A002B06D107F11403184600F070
:101AF000E1FF01237B6201F0F1FD00F057FC01F0F2
:101B0000D3FD3B6A93F844305BB2B3F1FF3F03D19E
:101B10003B6A002283F844203B6A93F845305BB26D
:101B2000B3F1FF3F03D13B6A002283F8452001F067
:101B3000D5FD3A1D07F114031146184600F0D0FFF9
:101B40000346002B23D1386A00F0A6F90346002B88
:101B500017D03B6A24337A681146184600F092FE8B
:101B6000386A00F047F900F02FFC0346002B89D1BA
:101B70000F4B4FF080521A60BFF34F8FBFF36F8F40
:101B800080E7386A00F036F900F01EFC7AE7386A20
:101B900000F030F900F018FC386A00F07DF90346D7
:101BA000002B3FF46FAF002318462837BD4680BD99
:101BB00004ED00E080B588B000AF786039600023A4
:101BC000FB617B68BB6101F06FFDBB699B6B7B6157
:101BD0007B69002B1BD07B695A1EBB699A63BB696A
:101BE0001B69002B0FD0BB691033184600F098FE1C
:101BF0000346002B07D03D4B4FF080521A60BFF3D5
:101C00004F8FBFF36F8F01F069FD012369E03B68DF
:101C1000002B03D101F062FD002362E0FB69002B81
:101C200006D107F10C03184600F044FF0123FB61C5
:101C300001F054FD00F0BAFB01F036FDBB6993F8EA
:101C400044305BB2B3F1FF3F03D1BB69002283F89C
:101C50004420BB6993F845305BB2B3F1FF3F03D139
:101C6000BB69002283F8452001F038FD3A4607F1B0
:101C70000C031146184600F033FF0346002B23D116
:101C8000B86900F009F90346002B17D0BB6924336B
:101C90003A681146184600F0F5FDB86900F0AAF858
:101CA00000F092FB0346002B8DD1104B4FF0805279
:101CB0001A60BFF34F8FBFF36F8F84E7B86900F0EE
:101CC00099F800F081FB7EE7B86900F093F800F026
:101CD0007BFBB86900F0E0F80346002B3FF473AFDC
:101CE000002318462037BD4680BD00BF04ED00E04C
:101CF00080B586B000AFF860B9607A6000233B61C0
:101D0000FB689B6B7B61FB681B6C002B43D07B6883
:101D1000002B19D1FB685868FB681B6C1A46B96820
:101D2000FEF76EFAFB685A68FB681B6C1A44FB6886
:101D30005A60FB685A68FB689B689A422BD3FB6821
:101D40001A68FB685A6026E0FB68D868FB681B6C61
:101D50001A46B968FEF754FAFB68DA68FB681B6C30
:101D60005B421A44FB68DA60FB68DA68FB681B6850
:101D70009A4207D2FB689A68FB681B6C5B421A4464
:101D8000FB68DA607B68022B05D17B69002B02D0EF
:101D90007B69013B7B617B695A1CFB689A633B69E9
:101DA00018461837BD4680BD80B582B000AF786058
:101DB00039607B681B6C002B18D07B68DA687B6805
:101DC0001B6C1A447B68DA607B68DA687B689B6806
:101DD0009A4203D37B681A687B68DA607B68D968AB
:101DE0007B681B6C1A463868FEF70AFA00BF083792
:101DF000BD4680BD80B584B000AF786001F054FC72
:101E00007B6893F84530FB7311E07B685B6A002BBD
:101E100012D07B682433184600F082FD0346002B65
:101E200001D000F09FFEFB7B013BDBB2FB7397F917
:101E30000F30002BE9DC00E000BF7B68FF2283F855
:101E4000452001F04BFC01F02FFC7B6893F84430F7
:101E5000BB7311E07B681B69002B12D07B681033C9
:101E6000184600F05DFD0346002B01D000F07AFE1D
:101E7000BB7B013BDBB2BB7397F90E30002BE9DC77
:101E800000E000BF7B68FF2283F8442001F026FCBD
:101E900000BF1037BD4680BD80B584B000AF78600C
:101EA00001F002FC7B689B6B002B02D10123FB60DD
:101EB00001E00023FB6001F011FCFB6818461037BD
:101EC000BD4680BD80B584B000AF786001F0ECFB0A
:101ED0007B689A6B7B68DB6B9A4202D10123FB60C3
:101EE00001E00023FB6001F0F9FBFB6818461037A6
:101EF000BD4680BD80B586B000AFF860B9607A603D
:101F0000FB687B6101F0D0FB7B6993F844305BB2E6
:101F1000B3F1FF3F03D17B69002283F844207B6942
:101F200093F845305BB2B3F1FF3F03D17B690022E8
:101F300083F8452001F0D2FB7B699B6B002B06D117
:101F40007B6924337A68B968184600F0B1FC786977
:101F5000FFF750FF00BF1837BD4680BD80B58AB07F
:101F600004AFF860B9607A603B607B689B001846FC
:101F700001F066F938613B69002B13D04C2001F069
:101F80005FF978617B69002B08D04C2200217869C9
:101F9000FEF7E6F87B693A691A6305E0386901F0F3
:101FA000FDF901E000237B617B69002B0DD000234C
:101FB00003937B6902937B6A01933B6A00933B68BE
:101FC0007A68B968F86800F028F87B69184618370D
:101FD000BD4680BD80B588B002AFF860B9607A6058
:101FE0003B607B6A01933B6A00933B687A68B968FF
:101FF000F868FFF7B3FF38613B69002B05D03869FB
:1020000000F070F801237B6102E04FF0FF337B6149
:102010007B6918461837BD4680BD80B586B000AFD5
:10202000F860B9607A603B60BB6A1A6B7B6803F149
:102030008043013B9B0013443B613B6923F0070352
:102040003B61BB68002B1ED000237B6112E0BA68A5
:102050007B6913441978BA6A7B69134434330A469E
:102060001A70BA687B6913441B78002B06D07B6911
:1020700001337B617B690F2BE9D900E000BFBB6AAC
:10208000002283F843203B6A042B01D904233B62DE
:10209000BB6A3A6ADA62BB6A04331846FFF7A3FAEE
:1020A000BB6A18331846FFF79EFABB6ABA6A1A6110
:1020B0003B6AC3F10502BB6A9A61BB6ABA6A5A629B
:1020C0003A68F968386901F055FA0246BB6A1A6045
:1020D0007B6A002B02D07B6ABA6A1A6000BF18378D
:1020E000BD4680BD80B584B000AF786001F0DCFAF9
:1020F0003F4B1B6801333E4A13603E4B1B68002B6D
:1021000009D13C4A7B681360394B1B68012B10D105
:1021100000F04EFD0DE0384B1B68002B09D1354B0C
:102120001B68DA6A7B68DB6A9A4202D8314A7B68AC
:102130001360324B1B680133304A13607B68DB6AE3
:1021400001229A402E4B1B6813432D4A13607B6873
:10215000DA6A2C4913469B0013449B000B4404335A
:102160001B68FB607B68FA689A60FB689A687B680A
:10217000DA60FB689B687A6804325A607B681A1DD3
:10218000FB689A607B68DA6A13469B0013449B00E5
:102190001C4A1A447B685A617B68DA6A19491346FB
:1021A0009B0013449B000B441B687A68D26A591C3D
:1021B000144813469B0013449B000344196001F02C
:1021C0008DFA0D4B1B68002B0ED00A4B1B68DA6A88
:1021D0007B68DB6A9A4207D20B4B4FF080521A6041
:1021E000BFF34F8FBFF36F8F00BF1037BD4680BD69
:1021F000400100207C0000204C0100205C010020F8
:10220000480100208000002004ED00E080B586B089
:1022100000AF7860396000237B6100F0C7F8224B83
:102220001B683B617B681B683A681344FB607B68F2
:102230001B683A699A420BD27B681B68FA689A421B
:1022400011D2FA683B699A420DD901237B610AE0F9
:102250007B681B68FA689A4203D3FA683B699A4222
:1022600001D901237B617B68FA681A607B69002BC6
:1022700006D0FA683B69D31A0021184600F02AFDFF
:1022800000F0A2F8B860BB68002B07D1074B4FF0F5
:1022900080521A60BFF34F8FBFF36F8F7B69184670
:1022A0001837BD4680BD00BF4401002004ED00E0AA
:1022B00080B58AB002AF0123FB6100233B6100239C
:1022C0007B6111E01C4A7B69134419783A467B69AB
:1022D00013440A461A703A467B6913441B78002B54
:1022E00006D07B6901337B617B690F2BEADD00E05F
:1022F00000BF0023BB6115E0104B3B61BB699B0035
:102300000F4A13443946019300230093002380228F
:102310003869FFF75FFEF861FB69002B06D0BB69E7
:102320000133BB61BB69002BE6DD00E000BFFB6948
:1023300018462037BD4680BD1C3800087D2B00089C
:102340006401002080B582B000AFFFF7B1FF786074
:102350007B68012B02D100F013FD78607B68012BB4
:1023600015D14FF0500383F31188BFF36F8FBFF384
:102370004F8F3B6000BF094B4FF0FF321A60084B94
:1023800001221A60074B00221A6001F05FF9064B28
:102390001B6800BF0837BD4680BD00BF600100203C
:1023A0004C010020440100203C38000880B400AFFC
:1023B000044B1B680133034A136000BFBD4680BC59
:1023C000704700BF6801002080B588B000AF0023CF
:1023D000FB610023BB6101F067F900233B616D4B9A
:1023E0001B68013B6B4A13606A4B1B68002B40F073
:1023F000CA80694B1B68002B00F0C5808EE0674BDC
:10240000DB68DB68FB61FB699B6AFB60FB69DB697E
:10241000FA69126A9A60FB691B6AFA69D2695A60A2
:10242000FB685A68FB6918339A4203D1FB691A6A40
:10243000FB685A60FB6900229A62FB681B685A1E9F
:10244000FB681A60FB695B69BB60FB699B68FA69A2
:10245000D2689A60FB69DB68FA6992685A60BB6867
:102460005A68FB6904339A4203D1FB69DA68BB6896
:102470005A60FB6900225A61BB681B685A1EBB6820
:102480001A60FB69DB6A01229A40454B1B681343C3
:10249000434A1360FB69DA6A424913469B001344BE
:1024A0009B000B4404331B687B60FB697A689A606D
:1024B0007B689A68FB69DA607B689B68FA6904321A
:1024C0005A60FB691A1D7B689A60FB69DA6A1346D9
:1024D0009B0013449B00334A1A44FB695A61FB6911
:1024E000DA6A304913469B0013449B000B441B6877
:1024F000FA69D26A591C2B4813469B0013449B006F
:1025000003441960FB69DA6A274B1B68DB6A9A424D
:1025100004D9264A3B69012142F823101F4B1B684E
:10252000002B7FF46CAFFB69002B01D000F0B8FBEF
:102530001F4B1B687B617B69002B12D000F054F8A5
:102540000346002B04D0194A3B69012142F82310AD
:102550007B69013B7B617B69002BEFD1144B00222F
:102560001A60124A3B6952F82330002B0BD001232A
:10257000BB610D4B1B680F4B4FF080521A60BFF3CD
:102580004F8FBFF36F8F01F0A9F8BB691846203752
:10259000BD4680BD680100204001002014010020DC
:1025A00048010020800000207C0000205401002011
:1025B0005001002004ED00E080B483B000AF044B74
:1025C0001B687B607B6818460C37BD4680BC704733
:1025D0004401002080B400AF024B1B681846BD4682
:1025E00080BC70474001002080B588B000AF002358
:1025F000FB61764B1B68002B40F0DE80744B1B6840
:102600000133BB61724ABB691360BB69002B10D1F7
:10261000704B1B687B61704B1B686E4A13606E4A7F
:102620007B6913606D4B1B6801336C4A136000F0CB
:1026300037FB6B4B1B68BA699A42C0F0A880654BA8
:102640001B681B68002B04D1654B4FF0FF321A60EA
:102650009DE0604B1B68DB68DB683B613B695B6846
:10266000FB60BA69FB689A4203D25D4AFB6813605B
:102670008DE03B695B69BB603B699B683A69D268E6
:102680009A603B69DB683A6992685A60BB685A682D
:102690003B6904339A4203D13B69DA68BB685A60EC
:1026A0003B6900225A61BB681B685A1EBB681A60EE
:1026B0003B699B6A002B1ED03B699B6A7B603B6930
:1026C000DB693A69126A9A603B691B6A3A69D269A6
:1026D0005A607B685A683B6918339A4203D13B6958
:1026E0001A6A7B685A603B6900229A627B681B68A1
:1026F0005A1E7B681A603B69DB6A01229A40394B9B
:102700001B681343374A13603B69DA6A364913463C
:102710009B0013449B000B4404331B683B603B69E4
:102720003A689A603B689A683B69DA603B689B68E4
:102730003A6904325A603B691A1D3B689A603B69EA
:10274000DA6A13469B0013449B00274A1A443B69EC
:102750005A613B69DA6A244913469B0013449B0083
:102760000B441B683A69D26A591C1F4813469B00E8
:1027700013449B00034419603B69DA6A1B4B1B68D6
:10278000DB6A9A427FF65BAF0123FB6157E7174B89
:102790001B68DA6A144913469B0013449B000B44E0
:1027A0001B68012B01D90123FB61114B1B68002B16
:1027B00007D00123FB6104E00E4B1B6801330D4A77
:1027C0001360FB6918462037BD4680BD68010020B4
:1027D000440100200C0100201001002058010020BD
:1027E0006001002048010020800000207C000020C3
:1027F000540100205001002080B485B000AF1C4B74
:102800001B68002B03D01B4B01221A602BE0194BD5
:1028100000221A60184B1B687B607B68B3FA83F355
:10282000FB70FB78C3F11F03FB60FA6813469B0043
:1028300013449B00114A1344BB60BB685B685A6831
:10284000BB685A60BB685A68BB6808339A4203D1B8
:10285000BB68DA68BB685A60BB685B68DB68084ABB
:102860001360074B1B6800BF1437BD4680BC704720
:102870006801002054010020480100208000002051
:102880007C00002080B582B000AF78603960074BD3
:102890001B68183319467868FEF7B1FE01213868C5
:1028A00000F018FA00BF0837BD4680BD7C0000204C
:1028B00080B586B000AFF860B9607A60FB685B688D
:1028C0007B61164B1B687A69DA61144B1B687A6965
:1028D00092681A62114B1A687B699B6818325A60B9
:1028E0000E4B1B6803F118027B699A600B4B1B6847
:1028F000FA689A62FB681B685A1CFB681A607B685E
:10290000002B02D04FF0FF33BB607968B86800F04D
:10291000E1F900BF1837BD4680BD00BF7C00002034
:1029200080B489B000AF78607B68DB68DB68BB612E
:10293000BB699B6A7B61BB69DB69BA69126A9A6091
:10294000BB691B6ABA69D2695A607B695A68BB69FC
:1029500018339A4203D1BB691A6A7B695A60BB6912
:1029600000229A627B691B685A1E7B691A604B4B76
:102970001B68002B60D1BB695B69FB60BB699B680E
:10298000BA69D2689A60BB69DB68BA6992685A60B2
:10299000FB685A68BB6904339A4203D1BB69DA68A1
:1029A000FB685A60BB6900225A61FB681B685A1EAB
:1029B000FB681A60BB69DB6A01229A40384B1B68CE
:1029C0001343374A1360BB69DA6A364913469B00E2
:1029D00013449B000B4404331B68BB60BB69BA689B
:1029E0009A60BB689A68BB69DA60BB689B68BA6921
:1029F00004325A60BB691A1DBB689A60BB69DA6A07
:102A000013469B0013449B00264A1A44BB695A6133
:102A1000BB69DA6A234913469B0013449B000B44AD
:102A20001B68BA69D26A591C1E4813469B0013449E
:102A30009B00034419601BE01B4B5B683B61BB6957
:102A40003A69DA613B699A68BB691A623B699B68BB
:102A5000BA6918325A60BB6903F118023B699A607F
:102A6000BB69114A9A62104B1B6801330E4A13600E
:102A7000BB69DA6A0D4B1B68DB6A9A4205D90123F0
:102A8000FB610B4B01221A6001E00023FB61FB6933
:102A900018462437BD4680BC704700BF680100203F
:102AA0004801002080000020140100207C0000204C
:102AB0005401002080B483B000AF7860064B1A68E0
:102AC0007B681A60054B1A687B685A6000BF0C3738
:102AD000BD4680BC704700BF580100204401002063
:102AE00080B586B000AF7860396000F0DDFD1B4B2B
:102AF0001B683B617B685B683A69D31AFB607B6843
:102B00001A68174B1B689A420AD07B685B683A695F
:102B10009A4205D301237B613B6800221A6015E0CD
:102B20003B681B68FA689A420BD23B681A68FB68DC
:102B3000D21A3B681A607868FFF7BCFF00237B61FC
:102B400004E03B6800221A6001237B6100F0C6FDAF
:102B50007B6918461837BD4680BD00BF4401002080
:102B60005801002080B400AF034B01221A6000BF5F
:102B7000BD4680BC704700BF5401002080B582B0C4
:102B800000AF786000F04EF8074B1B68012B07D9A7
:102B9000064B4FF080521A60BFF34F8FBFF36F8F19
:102BA000FEF7FCFCEEE700BF8000002004ED00E033
:102BB00080B582B000AF00237B600CE07A681346DA
:102BC0009B0013449B00104A13441846FEF7ECFC8C
:102BD0007B6801337B607B68042BEFD90B48FEF7E1
:102BE000E3FC0B48FEF7E0FC0A48FEF7DDFC0A4870
:102BF000FEF7DAFC094B054A1A60094B044A1A60D1
:102C000000BF0837BD4680BD80000020E4000020E2
:102C1000F800002014010020280100200C010020F1
:102C20001001002080B582B000AF19E000F03CFD3B
:102C3000104BDB68DB687B607B6804331846FEF76B
:102C400016FD0D4B1B68013B0B4A13600B4B1B68B9
:102C5000013B0A4A136000F041FD786800F010F86B
:102C6000064B1B68002BE1D100BF00BF0837BD46F3
:102C700080BD00BF28010020400100203C01002051
:102C800080B582B000AF78607B681B6B184600F09F
:102C900085FB786800F082FB00BF0837BD4680BD29
:102CA00080B400AF094B1B681B68002B04D1084B94
:102CB0004FF0FF321A6005E0044B1B68DB681B68AD
:102CC000034A136000BFBD4680BC70470C01002062
:102CD0006001002080B586B000AF78603960224B7B
:102CE0001B687B61214B1B683B61214B1B68FB60B0
:102CF000204B1B6804331846FEF7B9FC0346002B33
:102D00000BD11C4B1B68DB6A012202FA03F3DA4386
:102D1000194B1B681340184A13607A697B68134487
:102D2000BB60144B1B68BA685A60BA687B699A42E8
:102D300007D2104B1B6804331946F868FEF75FFC96
:102D40000EE00C4B1B68043319463869FEF757FC3C
:102D50000A4B1B68BA689A4202D2084ABB681360E1
:102D600000BF1837BD4680BD440100200C01002083
:102D7000100100207C00002048010020600100209C
:102D800080B584B002AF00237B6000F02FFA0A4BBD
:102D90001B68002B0BD0094B0193022300930023E7
:102DA0004FF4807206490748FFF714F978607B6892
:102DB00018460837BD4680BD9C010020A0010020B8
:102DC000243800086D2E000880B584B000AFF8608C
:102DD000B9607A6008E0FB689B69BA681344BB601D
:102DE000FB681B6AF8689847FB689A69BB68D1184A
:102DF000BB687A68F86800F0DDF80346002BEAD17A
:102E000000BF00BF1037BD4680BD000080B584B054
:102E100000AF78603960144B1B68DB68DB68FB60CF
:102E2000FB6804331846FEF722FCFB6893F8243055
:102E300003F00403002B05D03A687968F868FFF7BF
:102E4000C3FF08E0FB6893F8243023F00103DAB2F3
:102E5000FB6883F82420FB681B6AF868984700BF6A
:102E60001037BD4680BD00BF9401002080B584B0FE
:102E700000AF786007F10803184600F059F8F860D1
:102E8000BB681946F86800F005F800F0D5F800BFF7
:102E9000F0E7000080B584B000AF78603960FFF7DC
:102EA00085FA07F10803184600F064F8F860BB687B
:102EB000002B30D13B68002B0AD17A68FB689A421C
:102EC00006D8FFF781FAF9687868FFF79FFF24E0DA
:102ED0003B68002B08D0134B1B681B68002B01D1EB
:102EE000012300E000233B600F4B18687A68FB6801
:102EF000D31A3A681946FEF7FDFFFFF765FA034655
:102F0000002B0AD1094B4FF080521A60BFF34F8F4C
:102F1000BFF36F8F01E0FFF757FA00BF1037BD46D0
:102F200080BD00BF980100209C01002004ED00E05E
:102F300080B485B000AF78600D4B1B681B68002B18
:102F400001D1012200E000227B681A607B681B68C7
:102F5000002B05D1064B1B68DB681B68FB6001E09A
:102F60000023FB60FB6818461437BD4680BC7047E1
:102F70009401002080B584B000AF7860FFF71CFB9F
:102F8000F8600B4B1B68FA689A4205D200F008F90A
:102F90007B6801221A6002E07B6800221A60044A02
:102FA000FB681360FB6818461037BD4680BD00BF44
:102FB000A401002080B586B000AFF860B9607A60E7
:102FC0003B6000237B61FB68BA685A60FB68FA6863
:102FD0001A61BA687B689A4212D87A683B68D21A3A
:102FE000FB689B699A4202D301237B611BE0104B73
:102FF0001A68FB68043319461046FEF700FB12E01E
:103000007A683B689A4206D2BA683B689A4202D311
:1030100001237B6107E0074B1A68FB6804331946FC
:103020001046FEF7ECFA7B6918461837BD4680BD9E
:10303000980100209401002080B586B000AF3B1DB0
:1030400000221A605A609A6098E07B68002BC0F2F8
:103050009580FB687B617B695B69002B04D07B6991
:1030600004331846FEF703FB3B461846FFF782FF82
:1030700038617B68013B082B7DD801A252F823F010
:10308000A5300008A53000080D31000821310008E6
:103090004D310008A5300008A53000080D310008AA
:1030A000213100087B6993F8243043F00103DAB240
:1030B0007B6983F82420BA687B699B69D118BB6857
:1030C0003A697869FFF776FF0346002B55D07B6994
:1030D00093F8243003F00403002B09D0BA687B690D
:1030E0009B6913443A6919467869FFF76DFE08E059
:1030F0007B6993F8243023F00103DAB27B6983F80B
:1031000024207B691B6A7869984736E07B6993F8CD
:10311000243023F00103DAB27B6983F824202DE008
:103120007B6993F8243043F00103DAB27B6983F8BA
:103130002420BA687B699A617B699A693B69D118D6
:103140003B693A697869FFF735FF17E07B6993F8C7
:10315000243003F00203002B03D1786900F01EF93C
:103160000CE07B6993F8243023F00103DAB27B6929
:1031700083F8242002E000BF00E000BF074B1B687B
:10318000391D00221846FEF773FC0346002B7FF41E
:103190005CAF00BF00BF1837BD4680BD9C0100205A
:1031A00080B582B000AF09E00E4B1B68DB681B687E
:1031B0003B604FF0FF313868FFF728FE094B1B6872
:1031C0001B68002BF0D1074B1B687B60064B1B680C
:1031D000044A1360044A7B68136000BF0837BD4689
:1031E00080BD00BF940100209801002080B500AF91
:1031F00000F05AFA0D4B1B68002B13D10C48FEF758
:10320000D3F90C48FEF7D0F90B4B094A1A600B4B67
:10321000084A1A6000220C210520FEF7C5FA034671
:10322000024A136000F05AFA00BF80BD9C010020E2
:103230006C010020800100209401002098010020F2
:1032400080B588B000AF786000237B617B68002B7D
:1032500022D00823DB437A689A421BD808227B6875
:1032600013447B607B6803F00703002B14D07B685A
:1032700003F00703C3F108033B613B69DB437A6852
:103280009A4204D87A683B6913447B6004E00023C7
:103290007B6001E000237B60FFF788F83A4B1B68F6
:1032A000002B01D100F0B4F87B68002B64DB7B6855
:1032B000002B61D0354B1B687A689A425CD8344B3E
:1032C000BB61334B1B68FB6104E0FB69BB61FB69BD
:1032D0001B68FB61FB695B687A689A4203D9FB69EA
:1032E0001B68002BF1D1284B1B68FA699A4243D026
:1032F000BB691B68082213447B61FB691A68BB69C0
:103300001A60FB695A687B68D21A08235B009A42EC
:1033100013D9FA697B681344FB60FB695A687B68C0
:10332000D21AFB685A60FB697A685A60BB691A68EE
:10333000FB681A60BB69FA681A60144B1A68FB696B
:103340005B68D31A114A1360104B1A68114B1B6843
:103350009A4203D20D4B1B680E4A1360FB695B68EF
:1033600043F00042FB695A60FB6900221A600A4B75
:103370001B680133084A1360FFF726F87B6918467B
:103380002037BD4680BD00BFB0290020B4290020F1
:10339000A8290020B8290020BC29002080B584B0CD
:1033A00000AF78607B68FB607B68002B27D0082328
:1033B0005B42FA681344FB60FB68BB60BB685B68F8
:1033C000002B1CDABB681B68002B18D1BB685B683C
:1033D00023F00042BB685A60FEF7E8FFBB685A68FA
:1033E000094B1B681344084A1360B86800F06AF878
:1033F000064B1B680133054A1360FEF7E5FF00BF6B
:103400001037BD4680BD00BFB4290020C029002070
:1034100080B485B000AF4FF42053BB60244BFB60F9
:10342000FB6803F00703002B0CD0FB680733FB603D
:10343000FB6823F00703FB60BA68FB68D31A1C4AD9
:103440001344BB60FB681B4A13601A4B00225A608E
:10345000FA68BB6813447B6008227B689B1A7B6018
:103460007B6823F007037B607B68134A1360124B71
:103470001B6800225A60104B1B6800221A60FB6810
:103480003B603B687A68D21A3B685A600A4B1A68FC
:103490003B681A603B685B68084A13603B685B687E
:1034A000074A136000BF1437BD4680BC704700BF99
:1034B000A8010020A8290020B0290020B829002058
:1034C000B429002080B485B000AF7860274BFB6042
:1034D00002E0FB681B68FB60FB681B687A689A4225
:1034E000F7D8FB68BB60FB685B68BA6813447A680E
:1034F0009A4208D1FB685A687B685B681A44FB688B
:103500005A60FB687B607B68BB607B685B68BA68FD
:103510001A44FB681B689A4218D1FB681A68144B5E
:103520001B689A420DD07B685A68FB681B685B6811
:103530001A447B685A60FB681B681A687B681A60CB
:1035400008E00B4B1A687B681A6003E0FB681A6896
:103550007B681A60FA687B689A4202D0FB687A68D6
:103560001A6000BF1437BD4680BC7047A8290020F0
:10357000B029002080B485B000AFF860B9607A60EF
:10358000FB68043BFB60FB684FF080721A60FB68CD
:10359000043BFB60BB6823F00102FB681A60FB6818
:1035A000043BFB60084AFB681A60FB68143BFB6045
:1035B0007A68FB681A60FB68203BFB60FB68184672
:1035C0001437BD4680BC7047CD35000880B483B049
:1035D00000AF00233B604FF0500383F31188BFF32B
:1035E0006F8FBFF34F8F7B6000BF00BF3B68002B26
:1035F000FCD000BF00BF0C37BD4680BC7047000048
:10360000074B19680868B0E8F00F80F30988BFF32A
:103610006F8F4FF0000080F311884EF00D0E704751
:103620007C00002000BF00BF06480068006880F3EF
:10363000088862B661B6BFF34F8FBFF36F8F00DFAC
:1036400000BF000008ED00E000BF00BF80B582B001
:1036500000AF114B1B687B60104B1B680F4A43F493
:103660007F0313600D4B1B680C4A43F07F431360CC
:103670000B4B00221A6000F091F80A4B00221A60EE
:10368000FFF7D2FFFFF7B8F8FFF7A0FF00231846B7
:103690000837BD4680BD00BF08ED00E020ED00E02A
:1036A0001CED00E05400002080B483B000AF4FF068
:1036B000500383F31188BFF36F8FBFF34F8F7B608D
:1036C00000BF054B1B680133034A136000BF0C3772
:1036D000BD4680BC704700BF5400002080B483B05A
:1036E00000AF0A4B1B68013B084A1360074B1B687D
:1036F000002B05D100237B607B6883F3118800BF1A
:1037000000BF0C37BD4680BC704700BF540000208E
:10371000EFF30980BFF36F8F0D4B1A6820E9F00FAC
:1037200010602DE908404FF0500080F31188FFF73A
:1037300063F84FF0000080F31188BDE80840196875
:103740000868B0E8F00F80F30988BFF36F8F704707
:103750007C00002000BF00BF80B582B000AF4FF0FA
:10376000500383F31188BFF36F8FBFF34F8F7B60DC
:1037700000BFFEF739FF0346002B03D0064B4FF086
:1037800080521A6000233B603B6883F3118800BFBE
:1037900000BF0837BD4680BD04ED00E080B400AF37
:1037A0000A4B00221A600A4B00221A60094B1B6860
:1037B000094AA2FB03239B09084A013B1360034B00
:1037C00007221A6000BFBD4680BC704710E000E0D1
:1037D00018E000E050000020D34D621014E000E03B
:1037E0005461736B5F4144435F50726F64756365EE
:1037F000720000005461736B5F554152545F436F18
:103800006E73756D6572000056616C6F7220646531
:1038100020414443303A2025750D0A0049444C4567
:1038200000000000546D7220537663000000000019
:10383000000000000102030406070809040000005C
:10384000232D302B20000000686C4C006566674516
:10385000464700003031323334353637383941424B
:1038600043444546000000003031323334353637AA
:0C38700038396162636465660000000086
:08387C0084C9FF7F0100000078
:1038840004000020000000000000000068000000A8
:10389400D000000000000000000000000000000054
:1038A4000000000000000000000000000000000014
:1038B4000000000000000000000000000000000004
:1038C40000000000000000000000000000000000F4
:0838D40000127A00AAAAAAAAB8
:0400000508000FF9E7
:00000001FF
