:020000040800F2
:10000000FF4F00203D040008850400088504000817
:10001000850400088504000885040008000000002D
:10002000000000000000000000000000850400083F
:10003000850400080000000085040008850400080D
:10004000850400088504000885040008850400086C
:10005000850400088504000885040008850400085C
:10006000850400088504000885040008850400084C
:10007000850400088504000885040008850400083C
:10008000850400088504000885040008850400082C
:10009000850400088504000885040008850400081C
:1000A000850400088504000885040008850400080C
:1000B0008504000885040008C902000885040008BA
:1000C00085040008850400088504000885040008EC
:1000D00085040008850400088504000885040008DC
:1000E000850400088504000885040008000000005D
:1000F0000000000000000000000000000000000000
:0C01000000000000000000005FF808F1A3
:10010C0070B50F4B0F4DAB42A3EB050607D0002487
:10011C00B61055F8043B01349847A642F9D800F0C4
:10012C0017F9094D094B5E1BAB424FEAA60606D0E8
:10013C00002455F8043B01349847A642F9D870BD09
:10014C008804000888040008880400088804000853
:10015C0080B483B000AF0346FB7197F90730002BD6
:10016C000BDBFB7903F01F02064997F907305B099B
:10017C00012000FA02F241F8232000BF0C37BD46E3
:10018C0080BC704700E100E080B483B000AF034650
:10019C003960FB7197F90730002B0ADB3B68DAB248
:1001AC000C4997F907301201D2B20B4483F80023A3
:1001BC000AE03B68DAB20849FB7903F00F03043B11
:1001CC001201D2B20B441A7600BF0C37BD4680BC6C
:1001DC00704700BF00E100E000ED00E080B400AF2C
:1001EC00134B9B69124A43F009039361104BDB6973
:1001FC000F4A43F00403D3610E4B1B680D4A23F0E6
:10020C00706313600B4B1B680A4A43F00063136066
:10021C00084B1B68074A43F040731360054BDB68BF
:10022C00044A63F04003D36000BFBD4680BC7047F6
:10023C0000100240000C014080B500AF1E4B41F68F
:10024C001F429A621C4B9522DA621B4B00225A63A6
:10025C00194B9B69184A23F070039361164B9B69E9
:10026C00154A43F060039361134B9B69124A43F0A8
:10027C0008039361104B1B6A0F4A43F0010313628E
:10028C000D4B1B680C4A43F0800313600A4BDB6870
:10029C00094A43F00103D3601E20FFF759FF0221E6
:1002AC001E20FFF771FF044B1B68034A43F0010348
:1002BC00136000BF80BD00BF0008004080B400AFD9
:1002CC001C4B1B6903F00103002B2ED0194B1B692F
:1002DC00184A23F001031361174B1B785BB29AB2D7
:1002EC00164B1B881BB29BB213449BB21AB2134B16
:1002FC001A80124B1B881BB2942B06DD0F4B9522D8
:10030C001A800D4BFE221A700AE00C4B1B881BB294
:10031C00002B05DC094B00221A80074B02221A70B5
:10032C00064B1B881AB2034B5A6300BFBD4680BCF8
:10033C00704700BF000800400000002008000020AB
:10034C0080B500AFFFF74AFFFFF776FF30BFFDE740
:10035C0080B400AF00BFBD4680BC704780B400AF16
:10036C002F4B1B682E4A43F48033136000BF2C4B79
:10037C001B6803F40033002BF9D02A4B1B68294A65
:10038C0043F010031360274B1B68264A23F0070326
:10039C001360244B1B68234A43F004031360204B67
:1003AC001F4A5B6853601E4B5B681D4A43F48063B5
:1003BC0053601B4B1A4A5B685360194B5B68184AB5
:1003CC0023F47C135360164B5B68154A43F4E81313
:1003DC005360134B1B68124A43F08073136000BFC9
:1003EC000F4B1B6803F00073002BF9D00C4B5B68B0
:1003FC000B4A23F003035360094B5B68084A43F034
:10040C000203536000BF064B5B6803F00C03082B20
:10041C00F9D1054B054A1A6000BFBD4680BC704738
:10042C0000100240002002400400002000A24A04F8
:10043C00FFF794FF0B480C490C4A002302E0D458F8
:10044C00C4500433C4188C42F9D3094A094C002314
:10045C0001E013600432A242FBD3FFF751FEFFF719
:10046C006FFF70470000002008000020880400087F
:0C047C00080000200C000020FEE700003B
:080488000200000000127A00DE
:040000050800043DAE
:00000001FF
