:020000040800F2
:10000000FF4F002079090008C1090008C109000854
:10001000C1090008C1090008C1090008000000006A
:10002000000000000000000000000000C1090008FE
:10003000C109000800000000C1090008D10400083F
:10004000C1090008C1090008C1090008C109000868
:10005000C1090008C109000809050008C109000814
:10006000C1090008C1090008C1090008C109000848
:10007000C1090008C1090008C1090008C109000838
:10008000C1090008C1090008C1090008C109000828
:10009000C1090008C1090008C1090008C109000818
:1000A000C1090008C1090008C1090008C109000808
:1000B000C1090008C1090008C1090008C1090008F8
:1000C000C1090008C1090008C1090008C1090008E8
:1000D000C109000841050008C1090008C10900085C
:1000E000C1090008C1090008C1090008000000009A
:1000F0000000000000000000000000000000000000
:0C01000000000000000000005FF808F1A3
:10010C0070B5860747D0541E002A3ED00346CAB2AB
:10011C0001E0013C39D303F8012B9D07F9D1032CE5
:10012C002CD9CDB205EB05250F2C1A4605EB054550
:10013C0034D9A4F1100C2CF00F0603F1100EB644B8
:10014C004FEA1C1CC2E90055C2E902551032724537
:10015C00F8D10CF1010214F00C0F03EB021204F0B5
:10016C000F0C13D0ACF1040323F00303043313443A
:10017C0042F8045B9342FBD10CF003042CB1C9B2DE
:10018C001C4403F8011BA342FBD170BD644613460B
:10019C00002CF4D1F9E703461446C0E7A446E1E786
:1001AC0080EA010C1CF0030F37D110F0030C20F087
:1001BC00030021F0030150F8042B08BF51F8043B55
:1001CC000ED08CF0030C6FF07F434FEACC0C23FA6B
:1001DC000CFC51F8043B42EA0C0243EA0C0300BF4E
:1001EC00A2F1013C9A4201BF2CEA020C1CF0803FA8
:1001FC0050F8042B51F8043BF2D04FEA02604FEA5E
:10020C001222012828BFB0EB036F08BF1B0AF4D0E1
:10021C0003F0FF03000EC01A704710F0030F0AD052
:10022C0010F8012B11F8013B012A28BF9A42F4D097
:10023C00A2EB030070474DF8045D50F8042B01F05D
:10024C00030521F0030151F8043B022D26D04DD8B3
:10025C0022F07F45B5EB132FA2F1013C2CEA020CE6
:10026C000DD11CF0803C08BF51F8043B0AD185EA43
:10027C000205B5EB036F0CD150F8042BE8E74FEAFD
:10028C0013235BE03CF07F4C54D10B784FEA1265A2
:10029C0054E04FEA126503F0FF034FE04FEA0245CA
:1002AC00A2F1013C4FEA15452CEA020CB5EB134FB9
:1002BC0018D11CF0803C08BF51F8043B07D185EAEB
:1002CC000205B5EB034F09D150F8042BE6E75FEAC2
:1002DC000C4C2FD10B884FEA12452FE04FEA034309
:1002EC004FEA12454FEA134328E000BF02F0FF0526
:1002FC00B5EB136FA2F1013C2CEA020C0DD11CF0F2
:10030C00803C08BF51F8043B0AD185EA0205B5EBE5
:10031C00032F0AD150F8042BE8E74FEA13630DE0E2
:10032C0012F0FF0F06D051F8043B4FEA122523F0D0
:10033C007F4303E04FF0000020BC704705F0FF0244
:10034C0003F0FF00012828BF904204BF2D0A1B0AAE
:10035C00F4D0A2EB000020BC704700BF70B50F4B6F
:10036C000F4DAB42A3EB050607D00024B61055F891
:10037C00043B01349847A642F9D800F087FA094D9E
:10038C00094B5E1BAB424FEAA60606D0002455F87B
:10039C00043B01349847A642F9D870BDEC0900081B
:1003AC00EC090008EC090008EC09000880B483B0E3
:1003BC0000AF0346FB7197F90730002B0BDBFB7981
:1003CC0003F01F02064997F907305B09012000FA78
:1003DC0002F241F8232000BF0C37BD4680BC7047A9
:1003EC0000E100E080B483B000AF0346FB7197F9E5
:1003FC000730002B12DBFB7903F01F020A4997F937
:10040C0007305B09012000FA02F2203341F8232067
:10041C00BFF34F8F00BFBFF36F8F00BF00BF0C3710
:10042C00BD4680BC704700BF00E100E080B483B0E3
:10043C0000AF03463960FB7197F90730002B0ADBDC
:10044C003B68DAB20C4997F907301201D2B20B446F
:10045C0083F800230AE03B68DAB20849FB7903F021
:10046C000F03043B1201D2B20B441A7600BF0C37B7
:10047C00BD4680BC704700BF00E100E000ED00E02D
:10048C0080B582B000AF78607B68013BB3F1807FB0
:10049C0001D301230FE00A4A7B68013B53600F2113
:1004AC004FF0FF30FFF7C2FF054B00229A60044B60
:1004BC0007221A60002318460837BD4680BD00BFCE
:1004CC0010E000E080B400AF044B1B680133034A1A
:1004DC00136000BFBD4680BC704700BF0400002005
:1004EC0080B500AF034B00221A600348FFF7C8FF2A
:1004FC0000BF80BD040000204019010080B500AF92
:10050C000620FFF76FFF074B01221A70064B1B6882
:10051C00064A1360064B5B69054A43F001035361BD
:10052C0000BF80BD0C00002004000020080000204B
:10053C000004014080B483B000AF1E4B1B6803F075
:10054C002003002B31D01B4B5B68FB711A4B1B78C3
:10055C00DBB283F00103DBB2002B26D0FB790A2B34
:10056C0002D0FB790D2B0FD1144B1B78DBB2002B77
:10057C001BD0124B1B78DBB21A46114B002199543D
:10058C000D4B01221A7010E00C4B1B78DBB21E2BAA
:10059C000BD80A4B1B78DBB25A1CD1B2074A11702C
:1005AC001946074AFB795354FFE700BF0C37BD4689
:1005BC0080BC704700380140310000203000002022
:1005CC001000002080B400AF234B9B69224A43F4F7
:1005DC00804343F00D039361204B1B681F4A23F0AB
:1005EC00F00313601D4B1B681C4A43F0200313607F
:1005FC001A4BDB68194A63F00203D360184B1B6873
:10060C00174A23F00F031360154B1B68144A43F071
:10061C0008031360124BDB68114A43F00103D360EB
:10062C000F4B5B680E4A23F0F00353600C4B5B6876
:10063C000B4A43F0B0035360094B5B68084A23F440
:10064C0070635360064B5B68054A43F480635360E8
:10065C0000BFBD4680BC704700100240000C01403A
:10066C000008014080B500AF1B4BDB681A4A23F42D
:10067C008063D360184BDB68174A23F48053D36034
:10068C00154B1B69144A23F440531361124B41F66A
:10069C004C529A60104BDB680F4A43F00403D36052
:1006AC000D4BDB680C4A43F00803D3600A4BDB6844
:1006BC00094A43F02003D360074BDB68064A43F436
:1006CC000053D36000212520FFF7B0FE2520FFF753
:1006DC006DFE00BF80BD00BF0038014080B500AF8B
:1006EC000C4B0C4A9B6893600B4BDB680A4A43F03B
:1006FC000103D360084B1B68074A43F001031360E6
:10070C0001210620FFF792FE0620FFF74FFE00BFE7
:10071C0080BD00BF000001400004014080B592B0D4
:10072C0000AFFFF74FFFFFF7D9FFFFF7D9FEFFF739
:10073C0099FF494B3B643B46402200211846FFF78A
:10074C00DFFC002387F847300FE097F847303A6C0E
:10075C001A4497F84730127848333B4403F8482C36
:10076C0097F84730013387F8473097F847303A6CA1
:10077C0013441B78002B03D097F847303E2BE4D959
:10078C0097F8473048333B44002203F8482C334B4E
:10079C001B78DBB2002B22D0304B00221A700023C6
:1007AC0087F8463013E000BF2D4B1B6803F0800325
:1007BC00002BF9D097F8463048333B4413F8482CBB
:1007CC00274B5A6097F84630013387F8463097F834
:1007DC00463048333B4413F8483C002BE3D1214BC3
:1007EC001B78DBB2002B20D01F492048FFF7D8FC28
:1007FC000346002B06D11E4BDB681D4A23F0020377
:10080C00D3600CE01B491948FFF7CAFC0346002BC8
:10081C0005D1174BDB68164A43F00203D360164B25
:10082C0000221A700F4B00221A70144B1B6803F035
:10083C004003002BABD1124B1A68124B1B68D31A16
:10084C00312BA4D9104B5B690F4A43F00103536160
:10085C000620FFF7ABFD9AE7C40900080C00002046
:10086C000038014031000020DC0900081000002095
:10087C00000C0140E00900083000002000E100E01D
:10088C0004000020080000200004014080B400AFE8
:10089C0000BFBD4680BC704780B400AF2F4B1B68B7
:1008AC002E4A43F48033136000BF2C4B1B6803F4B7
:1008BC000033002BF9D02A4B1B68294A43F0100354
:1008CC001360274B1B68264A23F007031360244B45
:1008DC001B68234A43F004031360204B1F4A5B68D8
:1008EC0053601E4B5B681D4A43F4806353601B4B83
:1008FC001A4A5B685360194B5B68184A23F47C13E3
:10090C005360164B5B68154A43F4E8135360134B62
:10091C001B68124A43F08073136000BF0F4B1B68B7
:10092C0003F00073002BF9D00C4B5B680B4A23F0DF
:10093C0003035360094B5B68084A43F0020353609E
:10094C0000BF064B5B6803F00C03082BF9D1054B79
:10095C00054A1A6000BFBD4680BC704700100240BB
:10096C00002002400000002000A24A04FFF794FF80
:10097C000B480C490C4A002302E0D458C4500433F1
:10098C00C4188C42F9D3094A094C002301E01360C6
:10099C000432A242FBD3FFF7E1FCFFF7BFFE704726
:1009AC000000002004000020EC09000804000020D6
:0809BC0034000020FEE70000FA
:1009C40050756C7361646F722070726573696F6EB9
:1009D40061646F0D0A0000004F4E00004F46460050
:0809E400C8F7FF7F01000000CD
:0409EC0000127A007B
:04000005080009796D
:00000001FF
